{
  "contractName": "MeterHashStorage",
  "abi": [
    {
      "inputs": [],
      "stateMutability": "nonpayable",
      "type": "constructor"
    },
    {
      "anonymous": false,
      "inputs": [
        {
          "indexed": false,
          "internalType": "string",
          "name": "meterDID",
          "type": "string"
        },
        {
          "indexed": false,
          "internalType": "uint256",
          "name": "index",
          "type": "uint256"
        }
      ],
      "name": "HashRevoked",
      "type": "event"
    },
    {
      "anonymous": false,
      "inputs": [
        {
          "indexed": false,
          "internalType": "string",
          "name": "meterDID",
          "type": "string"
        },
        {
          "indexed": false,
          "internalType": "string",
          "name": "dataHash",
          "type": "string"
        }
      ],
      "name": "HashStored",
      "type": "event"
    },
    {
      "anonymous": false,
      "inputs": [
        {
          "indexed": false,
          "internalType": "string",
          "name": "meterDID",
          "type": "string"
        },
        {
          "indexed": false,
          "internalType": "uint256",
          "name": "index",
          "type": "uint256"
        },
        {
          "indexed": false,
          "internalType": "string",
          "name": "newDataHash",
          "type": "string"
        }
      ],
      "name": "HashUpdated",
      "type": "event"
    },
    {
      "inputs": [
        {
          "internalType": "string",
          "name": "meterDID",
          "type": "string"
        },
        {
          "internalType": "string",
          "name": "dataHash",
          "type": "string"
        }
      ],
      "name": "storeHash",
      "outputs": [],
      "stateMutability": "nonpayable",
      "type": "function"
    },
    {
      "inputs": [
        {
          "internalType": "string",
          "name": "meterDID",
          "type": "string"
        },
        {
          "internalType": "uint256",
          "name": "index",
          "type": "uint256"
        },
        {
          "internalType": "string",
          "name": "newDataHash",
          "type": "string"
        }
      ],
      "name": "updateHash",
      "outputs": [],
      "stateMutability": "nonpayable",
      "type": "function"
    },
    {
      "inputs": [
        {
          "internalType": "string",
          "name": "meterDID",
          "type": "string"
        },
        {
          "internalType": "uint256",
          "name": "index",
          "type": "uint256"
        }
      ],
      "name": "revokeHash",
      "outputs": [],
      "stateMutability": "nonpayable",
      "type": "function"
    },
    {
      "inputs": [
        {
          "internalType": "string",
          "name": "meterDID",
          "type": "string"
        }
      ],
      "name": "getHashes",
      "outputs": [
        {
          "internalType": "string[]",
          "name": "",
          "type": "string[]"
        }
      ],
      "stateMutability": "view",
      "type": "function"
    }
  ],
  "bytecode": "0x608060405234801561000f575f80fd5b506112638061001d5f395ff3fe608060405234801561000f575f80fd5b506004361061004a575f3560e01c80636f28ee091461004e5780639694f9fb1461006a578063c915656c1461009a578063d33f923d146100b6575b5f80fd5b610068600480360381019061006391906106b1565b6100d2565b005b610084600480360381019061007f919061072f565b6101f7565b60405161009191906108bf565b60405180910390f35b6100b460048036038101906100af9190610912565b6102eb565b005b6100d060048036038101906100cb91906109a3565b610423565b005b5f8484905011610117576040517f08c379a000000000000000000000000000000000000000000000000000000000815260040161010e90610a5a565b60405180910390fd5b5f828290501161015c576040517f08c379a000000000000000000000000000000000000000000000000000000000815260040161015390610ac2565b60405180910390fd5b5f848460405161016d929190610b1c565b9081526020016040518091039020828290918060018154018082558091505060019003905f5260205f20015f9091929091929091929091925091826101b3929190610d65565b507f6a65533d02b925acb2992a2ae949b17a39f20a7d21c88cfc1deed7303b3fe3e8848484846040516101e99493929190610e5e565b60405180910390a150505050565b60605f838360405161020a929190610b1c565b9081526020016040518091039020805480602002602001604051908101604052809291908181526020015f905b828210156102df578382905f5260205f2001805461025490610b98565b80601f016020809104026020016040519081016040528092919081815260200182805461028090610b98565b80156102cb5780601f106102a2576101008083540402835291602001916102cb565b820191905f5260205f20905b8154815290600101906020018083116102ae57829003601f168201915b505050505081526020019060010190610237565b50505050905092915050565b5f85856040516102fc929190610b1c565b908152602001604051809103902080549050831061034f576040517f08c379a000000000000000000000000000000000000000000000000000000000815260040161034690610ee1565b60405180910390fd5b5f8282905011610394576040517f08c379a000000000000000000000000000000000000000000000000000000000815260040161038b90610f49565b60405180910390fd5b81815f87876040516103a7929190610b1c565b908152602001604051809103902085815481106103c7576103c6610f67565b5b905f5260205f200191826103dc929190610d65565b507f99d00802095bfa6022ca1939aeeff91f668af64feec475647d161a9f6cc0e4e58585858585604051610414959493929190610fa3565b60405180910390a15050505050565b5f8383604051610434929190610b1c565b9081526020016040518091039020805490508110610487576040517f08c379a000000000000000000000000000000000000000000000000000000000815260040161047e90610ee1565b60405180910390fd5b5f60015f858560405161049b929190610b1c565b9081526020016040518091039020805490506104b79190611017565b90505f8290505b81811015610564575f85856040516104d7929190610b1c565b90815260200160405180910390206001826104f2919061104a565b8154811061050357610502610f67565b5b905f5260205f20015f868660405161051c929190610b1c565b9081526020016040518091039020828154811061053c5761053b610f67565b5b905f5260205f2001908161055091906110a4565b50808061055c90611189565b9150506104be565b505f8484604051610576929190610b1c565b9081526020016040518091039020805480610594576105936111d0565b5b600190038181905f5260205f20015f6105ad91906105f0565b90557f43f7544edae013f985a29c8fec50dbc2a900364061f3431c7e4d27abdf71b1688484846040516105e2939291906111fd565b60405180910390a150505050565b5080546105fc90610b98565b5f825580601f1061060d575061062a565b601f0160209004905f5260205f2090810190610629919061062d565b5b50565b5b80821115610644575f815f90555060010161062e565b5090565b5f80fd5b5f80fd5b5f80fd5b5f80fd5b5f80fd5b5f8083601f84011261067157610670610650565b5b8235905067ffffffffffffffff81111561068e5761068d610654565b5b6020830191508360018202830111156106aa576106a9610658565b5b9250929050565b5f805f80604085870312156106c9576106c8610648565b5b5f85013567ffffffffffffffff8111156106e6576106e561064c565b5b6106f28782880161065c565b9450945050602085013567ffffffffffffffff8111156107155761071461064c565b5b6107218782880161065c565b925092505092959194509250565b5f806020838503121561074557610744610648565b5b5f83013567ffffffffffffffff8111156107625761076161064c565b5b61076e8582860161065c565b92509250509250929050565b5f81519050919050565b5f82825260208201905092915050565b5f819050602082019050919050565b5f81519050919050565b5f82825260208201905092915050565b5f5b838110156107da5780820151818401526020810190506107bf565b5f8484015250505050565b5f601f19601f8301169050919050565b5f6107ff826107a3565b61080981856107ad565b93506108198185602086016107bd565b610822816107e5565b840191505092915050565b5f61083883836107f5565b905092915050565b5f602082019050919050565b5f6108568261077a565b6108608185610784565b93508360208202850161087285610794565b805f5b858110156108ad578484038952815161088e858261082d565b945061089983610840565b925060208a01995050600181019050610875565b50829750879550505050505092915050565b5f6020820190508181035f8301526108d7818461084c565b905092915050565b5f819050919050565b6108f1816108df565b81146108fb575f80fd5b50565b5f8135905061090c816108e8565b92915050565b5f805f805f6060868803121561092b5761092a610648565b5b5f86013567ffffffffffffffff8111156109485761094761064c565b5b6109548882890161065c565b95509550506020610967888289016108fe565b935050604086013567ffffffffffffffff8111156109885761098761064c565b5b6109948882890161065c565b92509250509295509295909350565b5f805f604084860312156109ba576109b9610648565b5b5f84013567ffffffffffffffff8111156109d7576109d661064c565b5b6109e38682870161065c565b935093505060206109f6868287016108fe565b9150509250925092565b5f82825260208201905092915050565b7f4d65746572204449442063616e6e6f7420626520656d707479000000000000005f82015250565b5f610a44601983610a00565b9150610a4f82610a10565b602082019050919050565b5f6020820190508181035f830152610a7181610a38565b9050919050565b7f4461746120686173682063616e6e6f7420626520656d707479000000000000005f82015250565b5f610aac601983610a00565b9150610ab782610a78565b602082019050919050565b5f6020820190508181035f830152610ad981610aa0565b9050919050565b5f81905092915050565b828183375f83830152505050565b5f610b038385610ae0565b9350610b10838584610aea565b82840190509392505050565b5f610b28828486610af8565b91508190509392505050565b5f82905092915050565b7f4e487b71000000000000000000000000000000000000000000000000000000005f52604160045260245ffd5b7f4e487b71000000000000000000000000000000000000000000000000000000005f52602260045260245ffd5b5f6002820490506001821680610baf57607f821691505b602082108103610bc257610bc1610b6b565b5b50919050565b5f819050815f5260205f209050919050565b5f6020601f8301049050919050565b5f82821b905092915050565b5f60088302610c247fffffffffffffffffffffffffffffffffffffffffffffffffffffffffffffffff82610be9565b610c2e8683610be9565b95508019841693508086168417925050509392505050565b5f819050919050565b5f610c69610c64610c5f846108df565b610c46565b6108df565b9050919050565b5f819050919050565b610c8283610c4f565b610c96610c8e82610c70565b848454610bf5565b825550505050565b5f90565b610caa610c9e565b610cb5818484610c79565b505050565b5b81811015610cd857610ccd5f82610ca2565b600181019050610cbb565b5050565b601f821115610d1d57610cee81610bc8565b610cf784610bda565b81016020851015610d06578190505b610d1a610d1285610bda565b830182610cba565b50505b505050565b5f82821c905092915050565b5f610d3d5f1984600802610d22565b1980831691505092915050565b5f610d558383610d2e565b9150826002028217905092915050565b610d6f8383610b34565b67ffffffffffffffff811115610d8857610d87610b3e565b5b610d928254610b98565b610d9d828285610cdc565b5f601f831160018114610dca575f8415610db8578287013590505b610dc28582610d4a565b865550610e29565b601f198416610dd886610bc8565b5f5b82811015610dff57848901358255600182019150602085019450602081019050610dda565b86831015610e1c5784890135610e18601f891682610d2e565b8355505b6001600288020188555050505b50505050505050565b5f610e3d8385610a00565b9350610e4a838584610aea565b610e53836107e5565b840190509392505050565b5f6040820190508181035f830152610e77818688610e32565b90508181036020830152610e8c818486610e32565b905095945050505050565b7f496e646578206f7574206f6620626f756e6473000000000000000000000000005f82015250565b5f610ecb601383610a00565b9150610ed682610e97565b602082019050919050565b5f6020820190508181035f830152610ef881610ebf565b9050919050565b7f4e6577206461746120686173682063616e6e6f7420626520656d7074790000005f82015250565b5f610f33601d83610a00565b9150610f3e82610eff565b602082019050919050565b5f6020820190508181035f830152610f6081610f27565b9050919050565b7f4e487b71000000000000000000000000000000000000000000000000000000005f52603260045260245ffd5b610f9d816108df565b82525050565b5f6060820190508181035f830152610fbc818789610e32565b9050610fcb6020830186610f94565b8181036040830152610fde818486610e32565b90509695505050505050565b7f4e487b71000000000000000000000000000000000000000000000000000000005f52601160045260245ffd5b5f611021826108df565b915061102c836108df565b925082820390508181111561104457611043610fea565b5b92915050565b5f611054826108df565b915061105f836108df565b925082820190508082111561107757611076610fea565b5b92915050565b5f8154905061108b81610b98565b9050919050565b5f819050815f5260205f209050919050565b8181036110b2575050611187565b6110bb8261107d565b67ffffffffffffffff8111156110d4576110d3610b3e565b5b6110de8254610b98565b6110e9828285610cdc565b5f601f831160018114611116575f8415611104578287015490505b61110e8582610d4a565b865550611180565b601f19841661112487611092565b965061112f86610bc8565b5f5b8281101561115657848901548255600182019150600185019450602081019050611131565b86831015611173578489015461116f601f891682610d2e565b8355505b6001600288020188555050505b5050505050505b565b5f611193826108df565b91507fffffffffffffffffffffffffffffffffffffffffffffffffffffffffffffffff82036111c5576111c4610fea565b5b600182019050919050565b7f4e487b71000000000000000000000000000000000000000000000000000000005f52603160045260245ffd5b5f6040820190508181035f830152611216818587610e32565b90506112256020830184610f94565b94935050505056fea2646970667358221220b109330a4cd66c8a8e8e2a15f601bb622e706e70040bbed03280c45877d3918964736f6c63430008150033",
  "immutableReferences": {},
  "source": "// SPDX-License-Identifier: MIT \r\npragma solidity ^0.8.0;\r\n\r\n/**\r\n * @title MeterHashStorage\r\n * @dev Manages the storage, update, and retrieval of meter data hashes.\r\n * @custom:dev-run-script file_path\r\n */\r\ncontract MeterHashStorage {\r\n    constructor(){}\r\n    \r\n    mapping(string => string[]) private meterHashes;\r\n\r\n    event HashStored(string meterDID, string dataHash);\r\n    event HashUpdated(string meterDID, uint index, string newDataHash);\r\n    event HashRevoked(string meterDID, uint index);\r\n\r\n    /**\r\n     * @dev Store a new hash for a given meter DID.\r\n     * @param meterDID Decentralized identifier for the meter.\r\n     * @param dataHash Hash of the meter's data.\r\n     */\r\n    function storeHash(string calldata meterDID, string calldata dataHash) external {\r\n        require(bytes(meterDID).length > 0, \"Meter DID cannot be empty\");\r\n        require(bytes(dataHash).length > 0, \"Data hash cannot be empty\");\r\n        meterHashes[meterDID].push(dataHash);\r\n        emit HashStored(meterDID, dataHash);\r\n    }\r\n\r\n    /**\r\n     * @dev Update a specific hash for a given meter DID.\r\n     * @param meterDID Decentralized identifier for the meter.\r\n     * @param index Index of the hash in the array.\r\n     * @param newDataHash New hash to replace the old one.\r\n     */\r\n    function updateHash(string calldata meterDID, uint index, string calldata newDataHash) external {\r\n        require(index < meterHashes[meterDID].length, \"Index out of bounds\");\r\n        require(bytes(newDataHash).length > 0, \"New data hash cannot be empty\");\r\n        meterHashes[meterDID][index] = newDataHash;\r\n        emit HashUpdated(meterDID, index, newDataHash);\r\n    }\r\n\r\n    /**\r\n     * @dev Revoke a specific hash for a given meter DID.\r\n     * @param meterDID Decentralized identifier for the meter.\r\n     * @param index Index of the hash in the array to revoke.\r\n     */\r\n    function revokeHash(string calldata meterDID, uint index) external {\r\n    require(index < meterHashes[meterDID].length, \"Index out of bounds\");\r\n    uint lastIndex = meterHashes[meterDID].length - 1;\r\n    \r\n    // Remove the element at the specified index by shifting all elements down by one.\r\n    for (uint i = index; i < lastIndex; i++) {\r\n        meterHashes[meterDID][i] = meterHashes[meterDID][i + 1];\r\n    }\r\n    \r\n    // Pop the last element which is now a duplicate after shifting\r\n    meterHashes[meterDID].pop();\r\n    emit HashRevoked(meterDID, index);\r\n}\r\n\r\n    /**\r\n     * @dev Retrieve all stored hashes for a given meter DID.\r\n     * @param meterDID Decentralized identifier for the meter.\r\n     * @return Array of stored data hashes.\r\n     */\r\n    function getHashes(string calldata meterDID) external view returns (string[] memory) {\r\n        return meterHashes[meterDID];\r\n    }\r\n}",
  "sourcePath": "D:\\0000\\student-beckwith-bsc\\smart-gas-meter-dapp\\contracts\\MeterHashStorage.sol",
  "compiler": {
    "name": "solc",
    "version": "0.8.21+commit.d9974bed.Emscripten.clang"
  },
  "schemaVersion": "3.4.16",
  "updatedAt": "2023-12-16T23:23:15.377Z",
  "devdoc": {
    "custom:dev-run-script": "file_path",
    "details": "Manages the storage, update, and retrieval of meter data hashes.",
    "kind": "dev",
    "methods": {
      "getHashes(string)": {
        "details": "Retrieve all stored hashes for a given meter DID.",
        "params": {
          "meterDID": "Decentralized identifier for the meter."
        },
        "returns": {
          "_0": "Array of stored data hashes."
        }
      },
      "revokeHash(string,uint256)": {
        "details": "Revoke a specific hash for a given meter DID.",
        "params": {
          "index": "Index of the hash in the array to revoke.",
          "meterDID": "Decentralized identifier for the meter."
        }
      },
      "storeHash(string,string)": {
        "details": "Store a new hash for a given meter DID.",
        "params": {
          "dataHash": "Hash of the meter's data.",
          "meterDID": "Decentralized identifier for the meter."
        }
      },
      "updateHash(string,uint256,string)": {
        "details": "Update a specific hash for a given meter DID.",
        "params": {
          "index": "Index of the hash in the array.",
          "meterDID": "Decentralized identifier for the meter.",
          "newDataHash": "New hash to replace the old one."
        }
      }
    },
    "title": "MeterHashStorage",
    "version": 1
  },
  "userdoc": {
    "kind": "user",
    "methods": {},
    "version": 1
  }
}